{
  "contractName": "InauguralGateKeeper",
  "abi": [
    {
      "constant": true,
      "inputs": [],
      "name": "cfoAddress",
      "outputs": [
        {
          "name": "",
          "type": "address"
        }
      ],
      "payable": false,
      "stateMutability": "view",
      "type": "function"
    },
    {
      "constant": true,
      "inputs": [],
      "name": "ceoAddress",
      "outputs": [
        {
          "name": "",
          "type": "address"
        }
      ],
      "payable": false,
      "stateMutability": "view",
      "type": "function"
    },
    {
      "constant": true,
      "inputs": [],
      "name": "tournament",
      "outputs": [
        {
          "name": "",
          "type": "address"
        }
      ],
      "payable": false,
      "stateMutability": "view",
      "type": "function"
    },
    {
      "constant": false,
      "inputs": [
        {
          "name": "newCfo",
          "type": "address"
        }
      ],
      "name": "setCfo",
      "outputs": [],
      "payable": false,
      "stateMutability": "nonpayable",
      "type": "function"
    },
    {
      "constant": false,
      "inputs": [
        {
          "name": "newCeo",
          "type": "address"
        }
      ],
      "name": "setCeo",
      "outputs": [],
      "payable": false,
      "stateMutability": "nonpayable",
      "type": "function"
    },
    {
      "constant": false,
      "inputs": [
        {
          "name": "newCoo",
          "type": "address"
        }
      ],
      "name": "setCoo",
      "outputs": [],
      "payable": false,
      "stateMutability": "nonpayable",
      "type": "function"
    },
    {
      "constant": true,
      "inputs": [],
      "name": "cooAddress",
      "outputs": [
        {
          "name": "",
          "type": "address"
        }
      ],
      "payable": false,
      "stateMutability": "view",
      "type": "function"
    },
    {
      "constant": true,
      "inputs": [],
      "name": "wizardCosts",
      "outputs": [
        {
          "name": "neutralWizardCost",
          "type": "uint96"
        },
        {
          "name": "elementalWizardCost",
          "type": "uint96"
        },
        {
          "name": "elementalWizardIncrement",
          "type": "uint32"
        }
      ],
      "payable": false,
      "stateMutability": "view",
      "type": "function"
    },
    {
      "inputs": [
        {
          "name": "setCooAddress",
          "type": "address"
        },
        {
          "name": "setCfoAddress",
          "type": "address"
        },
        {
          "name": "setNeutralWizardCost",
          "type": "uint256"
        },
        {
          "name": "setElementalWizardCost",
          "type": "uint256"
        },
        {
          "name": "setElementalWizardIncrement",
          "type": "uint256"
        }
      ],
      "payable": false,
      "stateMutability": "nonpayable",
      "type": "constructor"
    },
    {
      "payable": true,
      "stateMutability": "payable",
      "type": "fallback"
    },
    {
      "anonymous": false,
      "inputs": [
        {
          "indexed": false,
          "name": "previousCeo",
          "type": "address"
        },
        {
          "indexed": false,
          "name": "newCeo",
          "type": "address"
        }
      ],
      "name": "CEOTransferred",
      "type": "event"
    },
    {
      "anonymous": false,
      "inputs": [
        {
          "indexed": false,
          "name": "previousCoo",
          "type": "address"
        },
        {
          "indexed": false,
          "name": "newCoo",
          "type": "address"
        }
      ],
      "name": "COOTransferred",
      "type": "event"
    },
    {
      "anonymous": false,
      "inputs": [
        {
          "indexed": false,
          "name": "previousCfo",
          "type": "address"
        },
        {
          "indexed": false,
          "name": "newCfo",
          "type": "address"
        }
      ],
      "name": "CFOTransferred",
      "type": "event"
    },
    {
      "constant": false,
      "inputs": [
        {
          "name": "setTournament",
          "type": "address"
        }
      ],
      "name": "registerTournament",
      "outputs": [],
      "payable": false,
      "stateMutability": "nonpayable",
      "type": "function"
    },
    {
      "constant": false,
      "inputs": [
        {
          "name": "affinity",
          "type": "uint8"
        }
      ],
      "name": "conjureWizard",
      "outputs": [
        {
          "name": "",
          "type": "uint256"
        }
      ],
      "payable": true,
      "stateMutability": "payable",
      "type": "function"
    },
    {
      "constant": false,
      "inputs": [
        {
          "name": "affinities",
          "type": "uint8[]"
        }
      ],
      "name": "conjureWizardMulti",
      "outputs": [
        {
          "name": "wizardIds",
          "type": "uint256[]"
        }
      ],
      "payable": true,
      "stateMutability": "payable",
      "type": "function"
    },
    {
      "constant": false,
      "inputs": [
        {
          "name": "wizardIds",
          "type": "uint256[]"
        },
        {
          "name": "powers",
          "type": "uint256[]"
        },
        {
          "name": "affinities",
          "type": "uint8[]"
        },
        {
          "name": "owner",
          "type": "address"
        }
      ],
      "name": "conjureExclusiveMulti",
      "outputs": [],
      "payable": true,
      "stateMutability": "payable",
      "type": "function"
    },
    {
      "constant": false,
      "inputs": [
        {
          "name": "wizardIds",
          "type": "uint256[]"
        }
      ],
      "name": "absorbPresaleWizards",
      "outputs": [],
      "payable": false,
      "stateMutability": "nonpayable",
      "type": "function"
    },
    {
      "constant": false,
      "inputs": [
        {
          "name": "wizardId",
          "type": "uint256"
        }
      ],
      "name": "revive",
      "outputs": [],
      "payable": true,
      "stateMutability": "payable",
      "type": "function"
    },
    {
      "constant": false,
      "inputs": [
        {
          "name": "wizardId",
          "type": "uint256"
        },
        {
          "name": "newAffinity",
          "type": "uint8"
        }
      ],
      "name": "setAffinity",
      "outputs": [],
      "payable": false,
      "stateMutability": "nonpayable",
      "type": "function"
    },
    {
      "constant": true,
      "inputs": [
        {
          "name": "cost",
          "type": "uint256"
        }
      ],
      "name": "costToPower",
      "outputs": [
        {
          "name": "power",
          "type": "uint88"
        }
      ],
      "payable": false,
      "stateMutability": "pure",
      "type": "function"
    },
    {
      "constant": true,
      "inputs": [
        {
          "name": "power",
          "type": "uint88"
        }
      ],
      "name": "powerToCost",
      "outputs": [
        {
          "name": "cost",
          "type": "uint256"
        }
      ],
      "payable": false,
      "stateMutability": "pure",
      "type": "function"
    },
    {
      "constant": false,
      "inputs": [],
      "name": "withdraw",
      "outputs": [],
      "payable": false,
      "stateMutability": "nonpayable",
      "type": "function"
    },
    {
      "constant": false,
      "inputs": [],
      "name": "destroy",
      "outputs": [],
      "payable": false,
      "stateMutability": "nonpayable",
      "type": "function"
    }
  ],
  "bytecode": "0x60806040523480156200001157600080fd5b5060405160a08062002891833981018060405260a08110156200003357600080fd5b50805160208083015160408401516060850151608090950151939491939092859085906200006790339062000135811b901c565b62000078826200019f60201b60201c565b6001600160a01b03811615620000995762000099816200029460201b60201c565b5050604080516060810182526001600160601b03948516808252939094166020850181905263ffffffff929092169301839052600580546001600160601b031916909217600160601b600160c01b0319166c0100000000000000000000000090910217600160c01b63ffffffff021916780100000000000000000000000000000000000000000000000090920291909117905550620004809050565b600054604080516001600160a01b039283168152918316602083015280517f9d05f170f1d545b1aa21c4a4f79f17ff737f5f020ea1b333d88f29f0bbfa9fc69281900390910190a1600080546001600160a01b0319166001600160a01b0392909216919091179055565b6000546001600160a01b031633146200021957604080517f08c379a000000000000000000000000000000000000000000000000000000000815260206004820152600860248201527f4f6e6c792043454f000000000000000000000000000000000000000000000000604482015290519081900360640190fd5b6200022a816200038960201b60201c565b600154604080516001600160a01b039283168152918316602083015280517f1cd3afc04e6ae479d2b9f74533351b52218c5b2ae4f847f681a5eac514fe11849281900390910190a1600180546001600160a01b0319166001600160a01b0392909216919091179055565b6000546001600160a01b031633146200030e57604080517f08c379a000000000000000000000000000000000000000000000000000000000815260206004820152600860248201527f4f6e6c792043454f000000000000000000000000000000000000000000000000604482015290519081900360640190fd5b6200031f816200038960201b60201c565b600254604080516001600160a01b039283168152918316602083015280517fe1033d3cc535efc343c53636bdc05c52a44d9e70b089d4ad6e974379f2c651d69281900390910190a1600280546001600160a01b0319166001600160a01b0392909216919091179055565b6001600160a01b038116620003ff57604080517f08c379a000000000000000000000000000000000000000000000000000000000815260206004820152601b60248201527f5a65726f2061636365737320636f6e74726f6c20616464726573730000000000604482015290519081900360640190fd5b6000546001600160a01b03828116911614156200047d57604080517f08c379a000000000000000000000000000000000000000000000000000000000815260206004820152601c60248201527f43454f20616464726573732063616e6e6f742062652072657573656400000000604482015290519081900360640190fd5b50565b61240180620004906000396000f3fe6080604052600436106101145760003560e01c806388975198116100a0578063b047fb5011610064578063b047fb501461049e578063b83a0c44146104b3578063ce6991fd146104f8578063e5a604bf146105e9578063f4038ec71461062f57610114565b806388975198146103b55780638baecc21146103e857806398d7a414146104055780639934d7c3146104385780639986a0c61461046b57610114565b80632b81860b116100e75780632b81860b146102f35780632d46ed56146103385780633ccfd60b1461036b578063573f322f1461038057806383197ef0146103a057610114565b80630519ce79146101815780630a0f8168146101b25780630cff2fd0146101c75780631e0197e2146102de575b3373d8e4c31d8eb7bad28909a3d2e2dca6aacdab15631461017f5760408051600160e51b62461bcd02815260206004820152601e60248201527f446f6e27742073656e642066756e647320746f20476174654b65657065720000604482015290519081900360640190fd5b005b34801561018d57600080fd5b506101966106aa565b604080516001600160a01b039092168252519081900360200190f35b3480156101be57600080fd5b506101966106b9565b61017f600480360360808110156101dd57600080fd5b810190602081018135600160201b8111156101f757600080fd5b82018360208201111561020957600080fd5b803590602001918460208302840111600160201b8311171561022a57600080fd5b919390929091602081019035600160201b81111561024757600080fd5b82018360208201111561025957600080fd5b803590602001918460208302840111600160201b8311171561027a57600080fd5b919390929091602081019035600160201b81111561029757600080fd5b8201836020820111156102a957600080fd5b803590602001918460208302840111600160201b831117156102ca57600080fd5b9193509150356001600160a01b03166106c8565b3480156102ea57600080fd5b50610196610cdb565b3480156102ff57600080fd5b506103266004803603602081101561031657600080fd5b50356001600160581b0316610cea565b60408051918252519081900360200190f35b34801561034457600080fd5b5061017f6004803603602081101561035b57600080fd5b50356001600160a01b0316610cfd565b34801561037757600080fd5b5061017f610dc0565b6103266004803603602081101561039657600080fd5b503560ff16610e40565b3480156103ac57600080fd5b5061017f610eb3565b3480156103c157600080fd5b5061017f600480360360208110156103d857600080fd5b50356001600160a01b0316611040565b61017f600480360360208110156103fe57600080fd5b50356110a2565b34801561041157600080fd5b5061017f6004803603604081101561042857600080fd5b508035906020013560ff1661120b565b34801561044457600080fd5b5061017f6004803603602081101561045b57600080fd5b50356001600160a01b03166113cf565b34801561047757600080fd5b5061017f6004803603602081101561048e57600080fd5b50356001600160a01b0316611658565b3480156104aa57600080fd5b5061019661171b565b3480156104bf57600080fd5b506104c861172a565b604080516001600160601b03948516815292909316602083015263ffffffff168183015290519081900360600190f35b6105996004803603602081101561050e57600080fd5b810190602081018135600160201b81111561052857600080fd5b82018360208201111561053a57600080fd5b803590602001918460208302840111600160201b8311171561055b57600080fd5b919080806020026020016040519081016040528093929190818152602001838360200280828437600092019190915250929550611754945050505050565b60408051602080825283518183015283519192839290830191858101910280838360005b838110156105d55781810151838201526020016105bd565b505050509050019250505060405180910390f35b3480156105f557600080fd5b506106136004803603602081101561060c57600080fd5b5035611b73565b604080516001600160581b039092168252519081900360200190f35b34801561063b57600080fd5b5061017f6004803603602081101561065257600080fd5b810190602081018135600160201b81111561066c57600080fd5b82018360208201111561067e57600080fd5b803590602001918460208302840111600160201b8311171561069f57600080fd5b509092509050611b7b565b6002546001600160a01b031681565b6000546001600160a01b031681565b6001546001600160a01b031633146107185760408051600160e51b62461bcd0281526020600482015260086024820152600160c01b674f6e6c7920434f4f02604482015290519081900360640190fd5b858414801561072657508382145b61077a5760408051600160e51b62461bcd02815260206004820152601e60248201527f496e636f6e73697374656e7420706172616d65746572206c656e677468730000604482015290519081900360640190fd5b60408051858152602080870282010190915260009081906060908780156107ab578160200160208202803883390190505b50905060005b8781101561091a5760048787838181106107c757fe5b9050602002013560ff1660ff1611156108205760408051600160e51b62461bcd0281526020600482015260106024820152600160801b6f496e76616c696420616666696e69747902604482015290519081900360640190fd5b600160581b89898381811061083157fe5b905060200201351061088d5760408051600160e51b62461bcd02815260206004820152601360248201527f496e76616c696420706f776572206c6576656c00000000000000000000000000604482015290519081900360640190fd5b88888281811061089957fe5b905060200201358282815181106108ac57fe5b60200260200101906001600160581b031690816001600160581b03168152505060006108ea8383815181106108dd57fe5b6020026020010151610cea565b9050808501945061090d83838151811061090057fe5b6020026020010151612081565b90930192506001016107b1565b508234101561096b5760408051600160e51b62461bcd0281526020600482015260126024820152600160701b71496e73756666696369656e742066756e647302604482015290519081900360640190fd5b73b4acd2c618eb426a8e195cca2194c0903372ac0d6001600160a01b0316639d1580238b8b848a8a8a6040518763ffffffff1660e01b815260040180806020018060200180602001856001600160a01b03166001600160a01b0316815260200184810384528a8a828181526020019250602002808284376000838201819052601f909101601f191690920186810385528a5181528a51602091820193828d0193509102908190849084905b83811015610a2e578181015183820152602001610a16565b505050509050018481038252878782818152602001925060200280828437600081840152601f19601f8201169050808301925050509950505050505050505050600060405180830381600087803b158015610a8857600080fd5b505af1158015610a9c573d6000803e3d6000fd5b505060035460408051600160e01b63b9d95abb02815260048101918252604481018e90526001600160a01b03909216935063b9d95abb925085918e918e91879190819060248101906064018660208702808284376000838201819052601f909101601f1916909201858103845286518152865160209182019382890193509102908190849084905b83811015610b3c578181015183820152602001610b24565b50505050905001955050505050506000604051808303818588803b158015610b6357600080fd5b505af1158015610b77573d6000803e3d6000fd5b5050505050610b8584612094565b15610cc65760005b89811015610cc4576000856001600160a01b031663150b7a023360008f8f87818110610bb557fe5b905060200201356040518463ffffffff1660e01b815260040180846001600160a01b03166001600160a01b03168152602001836001600160a01b03166001600160a01b0316815260200182815260200180602001828103825260008152602001602001945050505050602060405180830381600087803b158015610c3857600080fd5b505af1158015610c4c573d6000803e3d6000fd5b505050506040513d6020811015610c6257600080fd5b505190506001600160e01b03198116600160e11b630a85bd010214610cbb57604051600160e51b62461bcd02815260040180806020018281038252602c8152602001806123aa602c913960400191505060405180910390fd5b50600101610b8d565b505b610ccf8361209a565b50505050505050505050565b6003546001600160a01b031681565b6001600160581b0381166103e802919050565b6000546001600160a01b03163314610d4d5760408051600160e51b62461bcd0281526020600482015260086024820152600160c01b674f6e6c792043454f02604482015290519081900360640190fd5b610d56816120dd565b600254604080516001600160a01b039283168152918316602083015280517fe1033d3cc535efc343c53636bdc05c52a44d9e70b089d4ad6e974379f2c651d69281900390910190a1600280546001600160a01b0319166001600160a01b0392909216919091179055565b6002546001600160a01b03163314610e105760408051600160e51b62461bcd0281526020600482015260086024820152600160c01b674f6e6c792043464f02604482015290519081900360640190fd5b6040513390303180156108fc02916000818181858888f19350505050158015610e3d573d6000803e3d6000fd5b50565b60408051600180825281830190925260009160609190602080830190803883390190505090508281600081518110610e7457fe5b602002602001019060ff16908160ff16815250506060610e9382611754565b905080600081518110610ea257fe5b602002602001015192505050919050565b6001546001600160a01b03163314610f035760408051600160e51b62461bcd0281526020600482015260086024820152600160c01b674f6e6c7920434f4f02604482015290519081900360640190fd5b303115610f5a5760408051600160e51b62461bcd02815260206004820152601560248201527f447261696e207468652066756e64732066697273740000000000000000000000604482015290519081900360640190fd5b6003546001600160a01b03161580610fe95750600360009054906101000a90046001600160a01b03166001600160a01b03166322f3e2d46040518163ffffffff1660e01b815260040160206040518083038186803b158015610fbb57600080fd5b505afa158015610fcf573d6000803e3d6000fd5b505050506040513d6020811015610fe557600080fd5b5051155b61103d5760408051600160e51b62461bcd02815260206004820152601160248201527f546f75726e616d656e7420616374697665000000000000000000000000000000604482015290519081900360640190fd5b33ff5b6000546001600160a01b031633146110905760408051600160e51b62461bcd0281526020600482015260086024820152600160c01b674f6e6c792043454f02604482015290519081900360640190fd5b611099816120dd565b610e3d816121a1565b60408051600160e01b63430c2081028152336004820152602481018390529051829173b4acd2c618eb426a8e195cca2194c0903372ac0d9163430c208191604480820192602092909190829003018186803b15801561110057600080fd5b505afa158015611114573d6000803e3d6000fd5b505050506040513d602081101561112a57600080fd5b50516111805760408051600160e51b62461bcd02815260206004820152601960248201527f4d7573742062652057697a61726420636f6e74726f6c6c657200000000000000604482015290519081900360640190fd5b600061118b34611b73565b9050600061119882612081565b60035460408051600160e01b638baecc210281526004810188905290519293506001600160a01b0390911691638baecc21918491602480830192600092919082900301818588803b1580156111ec57600080fd5b505af1158015611200573d6000803e3d6000fd5b505050505050505050565b60408051600160e01b63430c2081028152336004820152602481018490529051839173b4acd2c618eb426a8e195cca2194c0903372ac0d9163430c208191604480820192602092909190829003018186803b15801561126957600080fd5b505afa15801561127d573d6000803e3d6000fd5b505050506040513d602081101561129357600080fd5b50516112e95760408051600160e51b62461bcd02815260206004820152601960248201527f4d7573742062652057697a61726420636f6e74726f6c6c657200000000000000604482015290519081900360640190fd5b60ff8216158015906112ff5750600460ff831611155b6113535760408051600160e51b62461bcd02815260206004820152601c60248201527f4d7573742063686f6f736520612076616c696420616666696e69747900000000604482015290519081900360640190fd5b60408051600160e21b632635e9050281526004810185905260ff84166024820152905173b4acd2c618eb426a8e195cca2194c0903372ac0d916398d7a41491604480830192600092919082900301818387803b1580156113b257600080fd5b505af11580156113c6573d6000803e3d6000fd5b50505050505050565b6001546001600160a01b0316331461141f5760408051600160e51b62461bcd0281526020600482015260086024820152600160c01b674f6e6c7920434f4f02604482015290519081900360640190fd5b6003546001600160a01b0316156114805760408051600160e51b62461bcd02815260206004820152601d60248201527f546f75726e616d656e7420616c72656164792072656769737465726564000000604482015290519081900360640190fd5b600380546001600160a01b0319166001600160a01b0383169081179091551580159061152c575060035460408051600160e01b6301ffc9a7028152600160e31b6317a0b21302600482015290516001600160a01b03909216916301ffc9a791602480820192602092909190829003018186803b1580156114ff57600080fd5b505afa158015611513573d6000803e3d6000fd5b505050506040513d602081101561152957600080fd5b50515b6115805760408051600160e51b62461bcd02815260206004820152601260248201527f496e76616c696420546f75726e616d656e740000000000000000000000000000604482015290519081900360640190fd5b600360009054906101000a90046001600160a01b03166001600160a01b031663ad81e4d66040518163ffffffff1660e01b815260040160206040518083038186803b1580156115ce57600080fd5b505afa1580156115e2573d6000803e3d6000fd5b505050506040513d60208110156115f857600080fd5b505160048190556103e81015610e3d5760408051600160e51b62461bcd02815260206004820152601460248201527f506f776572207363616c6520746f6f2068696768000000000000000000000000604482015290519081900360640190fd5b6000546001600160a01b031633146116a85760408051600160e51b62461bcd0281526020600482015260086024820152600160c01b674f6e6c792043454f02604482015290519081900360640190fd5b6116b1816120dd565b600154604080516001600160a01b039283168152918316602083015280517f1cd3afc04e6ae479d2b9f74533351b52218c5b2ae4f847f681a5eac514fe11849281900390910190a1600180546001600160a01b0319166001600160a01b0392909216919091179055565b6001546001600160a01b031681565b6005546001600160601b0380821691600160601b810490911690600160c01b900463ffffffff1683565b606060008060606117648561220b565b925092509250823410156117ba5760408051600160e51b62461bcd0281526020600482015260126024820152600160701b71496e73756666696369656e742066756e647302604482015290519081900360640190fd5b604051600160e21b63157f6fbb028152336044820181905260606004830190815283516064840152835173b4acd2c618eb426a8e195cca2194c0903372ac0d936355fdbeec9386938b9391929091829160248101916084909101906020808901910280838360005b8381101561183a578181015183820152602001611822565b50505050905001838103825285818151815260200191508051906020019060200280838360005b83811015611879578181015183820152602001611861565b5050505090500195505050505050600060405180830381600087803b1580156118a157600080fd5b505af11580156118b5573d6000803e3d6000fd5b505050506040513d6000823e601f3d908101601f1916820160405260208110156118de57600080fd5b810190808051600160201b8111156118f557600080fd5b8201602081018481111561190857600080fd5b81518560208202830111600160201b8211171561192457600080fd5b505060035460408051600160e01b63b9d95abb02815260048101918252835160448201528351939a506001600160a01b03909216955063b9d95abb94508793508992879282916024820191606401906020808801910280838360005b83811015611998578181015183820152602001611980565b50505050905001838103825284818151815260200191508051906020019060200280838360005b838110156119d75781810151838201526020016119bf565b505050509050019450505050506000604051808303818588803b1580156119fd57600080fd5b505af1158015611a11573d6000803e3d6000fd5b5050505050611a1f33612094565b15611b625760005b8451811015611b60576000336001600160a01b031663150b7a02336000898681518110611a5057fe5b60200260200101516040518463ffffffff1660e01b815260040180846001600160a01b03166001600160a01b03168152602001836001600160a01b03166001600160a01b0316815260200182815260200180602001828103825260008152602001602001945050505050602060405180830381600087803b158015611ad457600080fd5b505af1158015611ae8573d6000803e3d6000fd5b505050506040513d6020811015611afe57600080fd5b505190506001600160e01b03198116600160e11b630a85bd010214611b5757604051600160e51b62461bcd02815260040180806020018281038252602c8152602001806123aa602c913960400191505060405180910390fd5b50600101611a27565b505b611b6b8361209a565b505050919050565b6103e8900490565b606080606073d8e4c31d8eb7bad28909a3d2e2dca6aacdab15636001600160a01b031663476c4a5e86866040518363ffffffff1660e01b815260040180806020018281038252848482818152602001925060200280828437600081840152601f19601f8201169050808301925050509350505050600060405180830381600087803b158015611c0957600080fd5b505af1158015611c1d573d6000803e3d6000fd5b505050506040513d6000823e601f3d908101601f191682016040526060811015611c4657600080fd5b810190808051600160201b811115611c5d57600080fd5b82016020810184811115611c7057600080fd5b81518560208202830111600160201b82111715611c8c57600080fd5b50509291906020018051600160201b811115611ca757600080fd5b82016020810184811115611cba57600080fd5b81518560208202830111600160201b82111715611cd657600080fd5b50509291906020018051600160201b811115611cf157600080fd5b82016020810184811115611d0457600080fd5b81518560208202830111600160201b82111715611d2057600080fd5b50509291905050509250925092506000809050600084600081518110611d4257fe5b6020026020010151905060608451604051908082528060200260200182016040528015611d79578160200160208202803883390190505b50905060005b8551811015611e5f57826001600160a01b0316878281518110611d9e57fe5b60200260200101516001600160a01b031614611e045760408051600160e51b62461bcd02815260206004820181905260248201527f416c6c2057697a61726473206d75737420686176652073616d65206f776e6572604482015290519081900360640190fd5b858181518110611e1057fe5b6020026020010151828281518110611e2457fe5b60200260200101906001600160581b031690816001600160581b031681525050611e5382828151811061090057fe5b90930192600101611d7f565b50604051600160e01b639d1580230281526001600160a01b03831660648201526080600482019081526084820189905273b4acd2c618eb426a8e195cca2194c0903372ac0d91639d158023918b918b9186918a91899181906024810190604481019060a4018960208a02808284376000838201819052601f909101601f19169092018681038552895181528951602091820193828c0193509102908190849084905b83811015611f19578181015183820152602001611f01565b50505050905001848103825286818151815260200191508051906020019060200280838360005b83811015611f58578181015183820152602001611f40565b5050505090500198505050505050505050600060405180830381600087803b158015611f8357600080fd5b505af1158015611f97573d6000803e3d6000fd5b505060035460408051600160e01b63b9d95abb02815260048101918252604481018c90526001600160a01b03909216935063b9d95abb925086918c918c91879190819060248101906064018660208702808284376000838201819052601f909101601f1916909201858103845286518152865160209182019382890193509102908190849084905b8381101561203757818101518382015260200161201f565b50505050905001955050505050506000604051808303818588803b15801561205e57600080fd5b505af1158015612072573d6000803e3d6000fd5b50505050505050505050505050565b6004546001600160581b03821602919050565b3b151590565b348190036125e43a028111156120d957604051339082156108fc029083906000818181858888f193505050501580156120d7573d6000803e3d6000fd5b505b5050565b6001600160a01b03811661213b5760408051600160e51b62461bcd02815260206004820152601b60248201527f5a65726f2061636365737320636f6e74726f6c20616464726573730000000000604482015290519081900360640190fd5b6000546001600160a01b0382811691161415610e3d5760408051600160e51b62461bcd02815260206004820152601c60248201527f43454f20616464726573732063616e6e6f742062652072657573656400000000604482015290519081900360640190fd5b600054604080516001600160a01b039283168152918316602083015280517f9d05f170f1d545b1aa21c4a4f79f17ff737f5f020ea1b333d88f29f0bbfa9fc69281900390910190a1600080546001600160a01b0319166001600160a01b0392909216919091179055565b600554815160408051828152602080840282010190915260009283926060926001600160601b0380841693600160601b810490911692600160c01b90910463ffffffff1691908015612267578160200160208202803883390190505b50935060005b875181101561236757600088828151811061228457fe5b6020026020010151905060008060ff168260ff161180156122a95750600460ff831611155b6122f35760408051600160e51b62461bcd0281526020600482015260106024820152600160801b6f496e76616c696420616666696e69747902604482015290519081900360640190fd5b60ff821660011415612306575084612313565b50620186a0838502048401935b61231c81611b73565b87848151811061232857fe5b60200260200101906001600160581b031690816001600160581b03168152505061235787848151811061090057fe5b980197909601955060010161226d565b5050600580546001600160601b03909216600160601b0277ffffffffffffffffffffffff0000000000000000000000001990921691909117905550919390925056fe436f6e7472616374206f776e6572206469646e27742061636365707420455243373231207472616e73666572a165627a7a7230582043dbd0f114fe576760346374829714c298ceaafceaccff23e9139a510a05302f0029",
  "source": "pragma solidity >=0.5.6 <0.6.0;\n\nimport \"./WizardGuildInterface.sol\";\nimport \"./TournamentInterface.sol\";\nimport \"./AccessControl.sol\";\nimport \"./WizardPresaleInterface.sol\";\nimport \"./WizardConstants.sol\";\nimport \"openzeppelin-solidity/contracts/token/ERC721/IERC721Receiver.sol\";\nimport \"./Address.sol\";\n\n/// @title The Inaugural Cheeze Wizards Gate Keeper contract\n/// @notice The GateKeeper is responsible for determining which Wizards are allowed to enter into\n///         a Tournament. This particular GateKeeper is designed to manage the first, official\n///         Cheeze Wizards Tournament! It's much more complicated than a typical GateKeeper\n///         implementation because it needs to juggle two additional issues that most GateKeepers\n///         don't need to deal with: Importing Wizards from the Presale contract and minting tokens\n///         to represent newly conjured Wizards.\ncontract InauguralGateKeeper is AccessControl, WizardConstants, Address, WizardGuildInterfaceId, TournamentInterfaceId {\n    // The Tournament contract.\n    TournamentInterface public tournament;\n\n    // The Wizard guild contract.\n    // TODO: Replace with the address of the contract once it's deployed.\n    WizardGuildInterface internal constant wizardGuild = WizardGuildInterface(address(0xb4aCd2c618EB426a8E195cCA2194c0903372AC0d));\n\n    // The Wizard presale contract.\n    WizardPresaleInterface internal constant wizardPresale = WizardPresaleInterface(address(0xd8E4C31D8EB7baD28909a3D2E2dCa6AACDaB1563));\n\n    /// @dev The ratio between the cost of a Wizard (in wei) and the power of the Wizard.\n    ///      power = cost / POWER_SCALE\n    ///      cost = power * POWER_SCALE\n    uint256 internal constant POWER_SCALE = 1000;\n    uint256 internal tournamentPowerScale;\n\n    /// @dev The constant conversion factor used for elementalWizardIncrement\n    uint256 private constant TENTH_BASIS_POINTS = 100000;\n\n    // Equals to `bytes4(keccak256(\"onERC721Received(address,address,uint256,bytes)\"))`\n    // which can be also obtained as `IERC721Receiver(0).onERC721Received.selector`\n    bytes4 private constant _ERC721_RECEIVED = 0x150b7a02;\n\n    // We pack these values together to save storage costs (and since they are all access together)\n    struct WizardCosts {\n        /// @dev The cost of Neutral Wizards (in wei).\n        uint96 neutralWizardCost;\n\n        /// @dev The cost of the _next_ Elemental Wizard (in wei); increases with each Elemental Wizard\n        ///      sold, at the rate defined in `elementalWizardIncrement`\n        uint96 elementalWizardCost;\n\n        /// @dev The increment ratio in cost between sequential Elemental Wizards, multiplied by 100k for\n        ///      greater granularity (TENTH_BASIS_POINTS)\n        uint32 elementalWizardIncrement;\n    }\n\n    WizardCosts public wizardCosts;\n\n    /// @param setCooAddress The initial COO address.\n    /// @param setCfoAddress The initial CFO address.\n    /// @param setNeutralWizardCost The cost of the Neutral Wizards, in wei.\n    /// @param setElementalWizardCost The starting cost of the Elemental Wizards, in wei.\n    /// @param setElementalWizardIncrement The rate at which the Elemental Wizards cost increases.\n    constructor(\n        address setCooAddress,\n        address payable setCfoAddress,\n        uint256 setNeutralWizardCost,\n        uint256 setElementalWizardCost,\n        uint256 setElementalWizardIncrement)\n        public AccessControl(setCooAddress, setCfoAddress)\n    {\n        wizardCosts = WizardCosts ({\n            neutralWizardCost: uint96(setNeutralWizardCost),\n            elementalWizardCost: uint96(setElementalWizardCost),\n            elementalWizardIncrement: uint32(setElementalWizardIncrement)\n        });\n    }\n\n    modifier onlyWizardController(uint256 wizardId) {\n        require(wizardGuild.isApprovedOrOwner(msg.sender, wizardId), \"Must be Wizard controller\");\n        _;\n    }\n\n    /// @dev The presale contract will be sending Ether directly to this contract,\n    ///      so we need it to have a payable fallback.\n    function() external payable {\n        require(msg.sender == address(wizardPresale), \"Don't send funds to GateKeeper\");\n    }\n\n    /// @notice Registers the address of the Tournament with the GateKeeper. This can't be passed\n    ///         into the constructor, because the Tournament itself needs a reference to the GateKeeper\n    ///         in its constructor!\n    ///\n    ///         NOTE: Technically, most of the functions below should have some kind of modifier\n    ///               that ensures that the Tournament is set before they are called, but that\n    ///               just adds gas. In practice, multiple draft Gatekeeper contracts may be\n    ///               deployed, so what matters is that we call this function before sharing\n    ///               the address of this contract publicly. No need to enforce that on chain,\n    ///               with its associated gas costs!\n    function registerTournament(address setTournament) external onlyCOO {\n        require(address(tournament) == address(0), \"Tournament already registered\");\n        tournament = TournamentInterface(setTournament);\n        require(\n            (setTournament != address(0)) &&\n            tournament.supportsInterface(_INTERFACE_ID_TOURNAMENT), \"Invalid Tournament\");\n\n        tournamentPowerScale = tournament.powerScale();\n        require(tournamentPowerScale <= POWER_SCALE, \"Power scale too high\");\n    }\n\n    /// @notice This is it folks, the main event! The way for the world to get new Wizards! Does\n    ///         pretty much what it says on the box; let's you conjure a new Wizard with a specified\n    ///         elemental affinity. The call must include enough Ether to cover the cost of the new\n    ///         Wizard, and any excess is refunded. The power of the Wizard is derived from\n    ///         the cost. YOU CAN NOT PAY EXTRA TO RAISE INITIAL POWER LATER. Returns the ID\n    ///         of the newly conjured Wizard.\n    ///\n    ///         While you cannot increase power later, you can conjure some more Wizards!\n    /// @param affinity The elemental affinity you want for the Wizard. Valid elements are\n    ///        defined in `WizardConstants`, see the constants with names starting `ELEMENT_`.\n    ///        ELEMENT_NOTSET is not valid for regular Wizards (unlike Exclusive Wizards).\n    function conjureWizard(uint8 affinity) external payable returns (uint256) {\n        uint8[] memory affinities = new uint8[](1);\n\n        affinities[0] = affinity;\n\n        uint256[] memory wizardIds = conjureWizardMulti(affinities);\n\n        return wizardIds[0];\n    }\n\n    /// @notice A convenience function that allows you to conjure a whole bunch of Wizards at once! You know how\n    ///         there's \"a pride of lions\", \"a murder of crows\", and \"a parliament of owls\"? Well, with this\n    ///         here function you can conjure yourself \"a stench of Cheeze Wizards\"!\n    /// @dev This function is careful to bundle all of the external calls (_transferRefund() and onERC721Received())\n    ///         at the end of the function to limit the risk of reentrancy attacks.\n    /// @param affinities The elemental affinites of the Wizards, can mix and match any valid types.\n    ///        Valid elements are defined in `WizardConstants`, see the constants with names starting\n    ///        `ELEMENT_`. ELEMENT_NOTSET is not valid for regular Wizards (unlike Exclusive Wizards).\n    function conjureWizardMulti(uint8[] memory affinities) public payable\n            returns (uint256[] memory wizardIds)\n    {\n        (uint256 totalCost, uint256 contribution, uint88[] memory powers) = _computeWizardPowers(affinities);\n\n        require(msg.value >= totalCost, \"Insufficient funds\");\n\n        // Mint the requested Wizards in the guild contract, assigning ownership to the sender\n        wizardIds = wizardGuild.mintWizards(powers, affinities, msg.sender);\n\n        // Enter the new Wizards into the Tournament\n        tournament.enterWizards.value(contribution)(wizardIds, powers);\n\n        // Ensure the Wizards are being assigned to an ERC-721 aware address (either an external address,\n        // or a smart contract that implements onERC721Received()). We must call onERC721Received() for\n        // each token minted because it's allowed for an ERC-721 receiving contract to reject the\n        // transfer based on the properties of the token.\n        if (isContract(msg.sender)) {\n            for (uint256 i = 0; i < wizardIds.length; i++) {\n                bytes4 transferAccepted = IERC721Receiver(msg.sender).onERC721Received(msg.sender, address(0), wizardIds[i], \"\");\n                require(transferAccepted == _ERC721_RECEIVED, \"Contract owner didn't accept ERC721 transfer\");\n            }\n        }\n\n        // NOTE: _transferRefund() is only safe if msg.value >= totalCost. See the require() near the\n        //       beginning of the function to feel better about this fact.\n        _transferRefund(totalCost);\n    }\n\n    /// @notice Allows for the creation of Exclusive Wizards. This can only be done by the COO, who still has\n    ///         to pay for the power imbued in these Wizards! Reverts if the owner address is a smart contract\n    ///         that is not ERC-721 aware.\n    /// @param wizardIds An array of IDs of the Wizards being conjured.\n    /// @param powers The power levels of the Wizards, corresponding 1:1 to Wizard IDs.\n    /// @param affinities The elemental affinities of the Wizards, corresponding 1:1 to Wizard IDs.\n    ///                   Valid elements are defined in `WizardConstants`, see the constants with\n    ///                   names starting `ELEMENT_`. ELEMENT_NOTSET is valid for Exclusive Wizards,\n    ///                   unlike regular Wizards.\n    /// @param owner The recipient address of the newly conjured Cheeze Wizards.\n    function conjureExclusiveMulti(\n        uint256[] calldata wizardIds,\n        uint256[] calldata powers,\n        uint8[] calldata affinities,\n        address owner\n    )\n        external payable onlyCOO\n    {\n        // Ensure the arrays are all of the same length\n        require(wizardIds.length == powers.length && powers.length == affinities.length, \"Inconsistent parameter lengths\");\n\n        uint256 totalCost = 0;\n        uint256 contribution = 0;\n        uint88[] memory localPowers = new uint88[](powers.length);\n\n        for (uint256 i = 0; i < powers.length; i++) {\n            require(affinities[i] <= MAX_ELEMENT, \"Invalid affinity\");\n\n            require(powers[i] < (1 << 88), \"Invalid power level\");\n            localPowers[i] = uint88(powers[i]);\n            uint256 wizardCost = powerToCost(localPowers[i]);\n\n            totalCost += wizardCost;\n            contribution += _potContribution(localPowers[i]);\n        }\n\n        require(msg.value >= totalCost, \"Insufficient funds\");\n\n        // Mint the requested Wizards via the guild contract\n        wizardGuild.mintReservedWizards(wizardIds, localPowers, affinities, owner);\n\n        // Enter the new Wizards into the Tournament\n        tournament.enterWizards.value(contribution)(wizardIds, localPowers);\n\n        // Ensure the Wizards are being assigned to an ERC-721 aware address (either an external address,\n        // or a smart contract that implements onERC721Received()). We must call onERC721Recieved for\n        // each token minted because it's allowed for an ERC-721 receiving contract to reject the\n        // transfer based on the properties of the token.\n        if (isContract(owner)) {\n            for (uint256 i = 0; i < wizardIds.length; i++) {\n                bytes4 transferAccepted = IERC721Receiver(owner).onERC721Received(msg.sender, address(0), wizardIds[i], \"\");\n                require(transferAccepted == _ERC721_RECEIVED, \"Contract owner didn't accept ERC721 transfer\");\n            }\n        }\n\n        // NOTE: _transferRefund() is only safe if msg.value >= totalCost. See the require() near the\n        //       middle of the function to feel better about this fact.\n        _transferRefund(totalCost);\n    }\n\n    /// @notice Computes the powers, total cost, and prize pot contribution for an array of new Wizards\n    ///         based on the provided affinities. This also checks that the affinity values are valid\n    ///         for the Tournament, and updates the elementalWizardCost storage variable as relevant.\n    function _computeWizardPowers(uint8[] memory affinities) internal\n            returns(uint256 totalCost, uint256 contribution, uint88[] memory powers)\n    {\n        // Cache the Wizard costs in order to reduce the gas costs from reads and writes to storage.\n        uint256 neutralWizardCost = wizardCosts.neutralWizardCost;\n        uint256 elementalWizardCost = wizardCosts.elementalWizardCost;\n        uint256 elementalWizardIncrement = wizardCosts.elementalWizardIncrement;\n\n        totalCost = 0;\n        contribution = 0;\n        powers = new uint88[](affinities.length);\n\n        for (uint256 i = 0; i < affinities.length; i++) {\n            uint8 affinity = affinities[i];\n            uint256 wizardCost;\n\n            require(affinity > ELEMENT_NOTSET && affinity <= MAX_ELEMENT, \"Invalid affinity\");\n\n            // Determine the price of the Wizard\n            if (affinity == ELEMENT_NEUTRAL) {\n                wizardCost = neutralWizardCost;\n            } else {\n                wizardCost = elementalWizardCost;\n\n                // Update the cost of the next Elemental Wizard\n                // NOTE: This math can't overflow because the total Ether supply in wei is well less than\n                //       2^128. Multiplying a valid cost in wei by some number <100k\n                //       cannot possibly overflow 256 bits. As cost is calculated\n                //       ourselves (rather than user provided) we know it must\n                //       be in the valid range.\n                elementalWizardCost += (elementalWizardCost * elementalWizardIncrement) / TENTH_BASIS_POINTS;\n            }\n\n            powers[i] = costToPower(wizardCost);\n\n            // IMPORTANT! Mathematically, you'd think we could just compute the pot contribution at the\n            // end of the loop, but this risks rounding differences between\n            // conjuring Wizards individually compared to conjuring them as a stench.\n            contribution += _potContribution(powers[i]);\n            totalCost += wizardCost;\n        }\n\n        // Update the cached elemental cost to storage. Conveniently this costs very little if\n        // the value isn't actually changed.\n        wizardCosts.elementalWizardCost = uint96(elementalWizardCost);\n    }\n\n    /// @notice Absorbs a number of presale Wizards into the final NFT contract, while also entering them into\n    ///         the Tournament. Can handle any number of Wizards in a batch BUT THEY MUST ALL HAVE THE SAME OWNER.\n    ///         Callable by anyone.\n    /// @param wizardIds The IDs of the presale Wizards; note that all Wizards MUST have the same owner.\n    function absorbPresaleWizards(uint256[] calldata wizardIds) external {\n        // Bulk fetch the Wizards from the presale contract. Note that this will also delete those Wizards from the\n        // presale contract, and will also transfer the funds used to purchase those Wizards to this contract.\n        // Obviously, a failed require() statement later in this funciton will undo that transfer and those deletes.\n        (\n            address[] memory owners,\n             uint256[] memory powers,\n             uint8[] memory affinities\n        ) = wizardPresale.absorbWizardMulti(wizardIds);\n\n        uint256 contribution = 0;\n        address theOwner = owners[0];\n        uint88[] memory localPowers = new uint88[](powers.length);\n\n        for (uint256 i = 0; i < powers.length; i++) {\n            require(owners[i] == theOwner, \"All Wizards must have same owner\");\n            localPowers[i] = uint88(powers[i]);\n            contribution += _potContribution(localPowers[i]);\n        }\n\n        // Mint the requested Wizards in the guild contract\n        wizardGuild.mintReservedWizards(wizardIds, localPowers, affinities, theOwner);\n\n        // Enter the new Wizards into the Tournament\n        tournament.enterWizards.value(contribution)(wizardIds, localPowers);\n    }\n\n    /// @notice Revive a tired Wizard so they can duel again. The caller must own\n    ///         the Wizard.\n    /// @param wizardId The ID of the Wizard to revive.\n    function revive(uint256 wizardId) external payable onlyWizardController(wizardId) {\n        // We don't need to do any validation here, we can let the Tournament decide\n        // if the pot contribution amount derived from msg.value represents a valid\n        // power level to use for reviving this Wizard.\n        uint88 purchasedPower = costToPower(msg.value);\n        uint256 potContributionValue = _potContribution(purchasedPower);\n\n        tournament.revive.value(potContributionValue)(wizardId);\n    }\n\n    /// @notice Sets the affinity for a Wizard that doesn't already have its elemental affinity chosen.\n    ///         As a rule this is only ever expected to apply to Exclusive Wizards, as regular wizards\n    ///         have their affinity set when they are conjured.\n    function setAffinity(uint256 wizardId, uint8 newAffinity) external onlyWizardController(wizardId) {\n        require(newAffinity > ELEMENT_NOTSET && newAffinity <= MAX_ELEMENT, \"Must choose a valid affinity\");\n\n        // The guild will enforce the Wizard doesn't already have an affinity set.\n        wizardGuild.setAffinity(wizardId, newAffinity);\n    }\n\n    /// @notice Determine the power of a Wizard based on their price.\n    /// @param cost The price of the Wizard in wei.\n    /// @return The power of the Wizard (cast to uint88).\n    function costToPower(uint256 cost) public pure returns (uint88 power) {\n        return uint88(cost / POWER_SCALE);\n    }\n\n    /// @param power The power of the Wizard.\n    /// @return The cost of the Wizard in wei.\n    function powerToCost(uint88 power) public pure returns (uint256 cost) {\n        return power * POWER_SCALE;\n    }\n\n    /// @notice Computes the number of wei required to be sent to the Tournament\n    ///         in order to match a given power level.\n    /// @param wizardPower The power level\n    /// @return The prize pot contribution necessary to match the given power\n    function _potContribution(uint88 wizardPower) internal view returns (uint256) {\n        return wizardPower * tournamentPowerScale;\n    }\n\n    /// @notice Allows the CFO to withdraw funds from this contract.\n    function withdraw() external onlyCFO {\n        // All of the pot contributions go directly into the Tournament contract, so\n        // we can safely withdraw everything, with no hold-backs.\n        msg.sender.transfer(address(this).balance);\n    }\n\n    /// @notice Allows the COO to destroy this contract if it's not needed anymore.\n    function destroy() external onlyCOO {\n        require(address(this).balance == 0, \"Drain the funds first\");\n        require(address(tournament) == address(0) || tournament.isActive() == false, \"Tournament active\");\n\n        selfdestruct(msg.sender);\n    }\n\n    /// @notice Utility function that refunds any overpayment to the sender; smart\n    ///      enough to only send the excess if the amount we are returning is more than the\n    ///      cost of sending it!\n    /// @dev Warning! This does not check for underflows (msg.value < actualPrice) - so\n    ///      be sure to call this with correct values!\n    /// @param actualPrice The actual price owed for the conjured Wizards.\n    function _transferRefund(uint256 actualPrice) private {\n        uint256 refund = msg.value - actualPrice;\n\n        // Make sure the amount we're trying to refund is less than the actual cost of sending it!\n        // See https://github.com/ethereum/wiki/wiki/Subtleties for magic values costs.  We can\n        // safley ignore the 25000 additional gas cost for new accounts, as msg.sender is\n        // guarunteed to exist at this point!\n        if (refund > (tx.gasprice * (9000+700))) {\n            msg.sender.transfer(refund);\n        }\n    }\n}\n",
  "sourcePath": "/data/contracts/InauguralGateKeeper.sol",
  "compiler": {
    "name": "solc",
    "version": "0.5.8+commit.23d335f2.Emscripten.clang"
  },
  "schemaVersion": "3.0.11",
  "updatedAt": "2019-08-01T19:58:03.957Z",
  "devdoc": {
    "methods": {
      "absorbPresaleWizards(uint256[])": {
        "params": {
          "wizardIds": "The IDs of the presale Wizards; note that all Wizards MUST have the same owner."
        }
      },
      "conjureExclusiveMulti(uint256[],uint256[],uint8[],address)": {
        "params": {
          "affinities": "The elemental affinities of the Wizards, corresponding 1:1 to Wizard IDs.                   Valid elements are defined in `WizardConstants`, see the constants with                   names starting `ELEMENT_`. ELEMENT_NOTSET is valid for Exclusive Wizards,                   unlike regular Wizards.",
          "owner": "The recipient address of the newly conjured Cheeze Wizards.",
          "powers": "The power levels of the Wizards, corresponding 1:1 to Wizard IDs.",
          "wizardIds": "An array of IDs of the Wizards being conjured."
        }
      },
      "conjureWizard(uint8)": {
        "params": {
          "affinity": "The elemental affinity you want for the Wizard. Valid elements are        defined in `WizardConstants`, see the constants with names starting `ELEMENT_`.        ELEMENT_NOTSET is not valid for regular Wizards (unlike Exclusive Wizards)."
        }
      },
      "conjureWizardMulti(uint8[])": {
        "details": "This function is careful to bundle all of the external calls (_transferRefund() and onERC721Received())         at the end of the function to limit the risk of reentrancy attacks.",
        "params": {
          "affinities": "The elemental affinites of the Wizards, can mix and match any valid types.        Valid elements are defined in `WizardConstants`, see the constants with names starting        `ELEMENT_`. ELEMENT_NOTSET is not valid for regular Wizards (unlike Exclusive Wizards)."
        }
      },
      "constructor": {
        "params": {
          "setCfoAddress": "The initial CFO address.",
          "setCooAddress": "The initial COO address.",
          "setElementalWizardCost": "The starting cost of the Elemental Wizards, in wei.",
          "setElementalWizardIncrement": "The rate at which the Elemental Wizards cost increases.",
          "setNeutralWizardCost": "The cost of the Neutral Wizards, in wei."
        }
      },
      "costToPower(uint256)": {
        "params": {
          "cost": "The price of the Wizard in wei."
        },
        "return": "The power of the Wizard (cast to uint88)."
      },
      "powerToCost(uint88)": {
        "params": {
          "power": "The power of the Wizard."
        },
        "return": "The cost of the Wizard in wei."
      },
      "revive(uint256)": {
        "params": {
          "wizardId": "The ID of the Wizard to revive."
        }
      },
      "setCeo(address)": {
        "params": {
          "newCeo": "The address of the new CEO"
        }
      },
      "setCfo(address)": {
        "params": {
          "newCfo": "The address of the new CFO"
        }
      },
      "setCoo(address)": {
        "params": {
          "newCoo": "The address of the new COO"
        }
      }
    },
    "title": "The Inaugural Cheeze Wizards Gate Keeper contract"
  },
  "userdoc": {
    "methods": {
      "absorbPresaleWizards(uint256[])": {
        "notice": "Absorbs a number of presale Wizards into the final NFT contract, while also entering them into         the Tournament. Can handle any number of Wizards in a batch BUT THEY MUST ALL HAVE THE SAME OWNER.         Callable by anyone."
      },
      "conjureExclusiveMulti(uint256[],uint256[],uint8[],address)": {
        "notice": "Allows for the creation of Exclusive Wizards. This can only be done by the COO, who still has         to pay for the power imbued in these Wizards! Reverts if the owner address is a smart contract         that is not ERC-721 aware."
      },
      "conjureWizard(uint8)": {
        "notice": "This is it folks, the main event! The way for the world to get new Wizards! Does         pretty much what it says on the box; let's you conjure a new Wizard with a specified         elemental affinity. The call must include enough Ether to cover the cost of the new         Wizard, and any excess is refunded. The power of the Wizard is derived from         the cost. YOU CAN NOT PAY EXTRA TO RAISE INITIAL POWER LATER. Returns the ID         of the newly conjured Wizard.     ///         While you cannot increase power later, you can conjure some more Wizards!"
      },
      "conjureWizardMulti(uint8[])": {
        "notice": "A convenience function that allows you to conjure a whole bunch of Wizards at once! You know how         there's \"a pride of lions\", \"a murder of crows\", and \"a parliament of owls\"? Well, with this         here function you can conjure yourself \"a stench of Cheeze Wizards\"!"
      },
      "costToPower(uint256)": {
        "notice": "Determine the power of a Wizard based on their price."
      },
      "destroy()": {
        "notice": "Allows the COO to destroy this contract if it's not needed anymore."
      },
      "registerTournament(address)": {
        "notice": "Registers the address of the Tournament with the GateKeeper. This can't be passed         into the constructor, because the Tournament itself needs a reference to the GateKeeper         in its constructor!     ///         NOTE: Technically, most of the functions below should have some kind of modifier               that ensures that the Tournament is set before they are called, but that               just adds gas. In practice, multiple draft Gatekeeper contracts may be               deployed, so what matters is that we call this function before sharing               the address of this contract publicly. No need to enforce that on chain,               with its associated gas costs!"
      },
      "revive(uint256)": {
        "notice": "Revive a tired Wizard so they can duel again. The caller must own         the Wizard."
      },
      "setAffinity(uint256,uint8)": {
        "notice": "Sets the affinity for a Wizard that doesn't already have its elemental affinity chosen.         As a rule this is only ever expected to apply to Exclusive Wizards, as regular wizards         have their affinity set when they are conjured."
      },
      "setCeo(address)": {
        "notice": "Assigns a new address to act as the CEO. Only available to the current CEO."
      },
      "setCfo(address)": {
        "notice": "Assigns a new address to act as the CFO. Only available to the current CEO."
      },
      "setCoo(address)": {
        "notice": "Assigns a new address to act as the COO. Only available to the current CEO."
      },
      "withdraw()": {
        "notice": "Allows the CFO to withdraw funds from this contract."
      }
    },
    "notice": "The GateKeeper is responsible for determining which Wizards are allowed to enter into         a Tournament. This particular GateKeeper is designed to manage the first, official         Cheeze Wizards Tournament! It's much more complicated than a typical GateKeeper         implementation because it needs to juggle two additional issues that most GateKeepers         don't need to deal with: Importing Wizards from the Presale contract and minting tokens         to represent newly conjured Wizards."
  }
}